{
  "contractName": "Calculate",
  "abi": [
    {
      "inputs": [],
      "name": "value",
      "outputs": [
        {
          "internalType": "uint256",
          "name": "",
          "type": "uint256"
        }
      ],
      "stateMutability": "view",
      "type": "function"
    },
    {
      "inputs": [
        {
          "internalType": "uint256",
          "name": "_value",
          "type": "uint256"
        }
      ],
      "name": "setValue",
      "outputs": [],
      "stateMutability": "nonpayable",
      "type": "function"
    },
    {
      "inputs": [
        {
          "internalType": "uint256",
          "name": "n",
          "type": "uint256"
        }
      ],
      "name": "addition",
      "outputs": [],
      "stateMutability": "nonpayable",
      "type": "function"
    },
    {
      "inputs": [
        {
          "internalType": "uint256",
          "name": "_s",
          "type": "uint256"
        }
      ],
      "name": "subtraction",
      "outputs": [],
      "stateMutability": "nonpayable",
      "type": "function"
    },
    {
      "inputs": [
        {
          "internalType": "uint256",
          "name": "_m",
          "type": "uint256"
        }
      ],
      "name": "multiplication",
      "outputs": [],
      "stateMutability": "nonpayable",
      "type": "function"
    },
    {
      "inputs": [
        {
          "internalType": "uint256",
          "name": "_n",
          "type": "uint256"
        }
      ],
      "name": "division",
      "outputs": [],
      "stateMutability": "nonpayable",
      "type": "function"
    },
    {
      "inputs": [],
      "name": "getValue",
      "outputs": [
        {
          "internalType": "uint256",
          "name": "",
          "type": "uint256"
        }
      ],
      "stateMutability": "view",
      "type": "function"
    }
  ],
  "bytecode": "0x608060405234801561001057600080fd5b5061040a806100206000396000f3fe608060405234801561001057600080fd5b506004361061007d5760003560e01c8063543209b71161005b578063543209b7146100da57806355241077146100f65780636401557d14610112578063c6162c611461012e5761007d565b806320965255146100825780633fa4f245146100a057806345bd069b146100be575b600080fd5b61008a61014a565b60405161009791906101e8565b60405180910390f35b6100a8610153565b6040516100b591906101e8565b60405180910390f35b6100d860048036038101906100d39190610234565b610159565b005b6100f460048036038101906100ef9190610234565b610174565b005b610110600480360381019061010b9190610234565b61018f565b005b61012c60048036038101906101279190610234565b610199565b005b61014860048036038101906101439190610234565b6101b4565b005b60008054905090565b60005481565b8060008082825461016a91906102bf565b9250508190555050565b8060008082825461018591906102f0565b9250508190555050565b8060008190555050565b806000808282546101aa9190610346565b9250508190555050565b806000808282546101c5919061037a565b9250508190555050565b6000819050919050565b6101e2816101cf565b82525050565b60006020820190506101fd60008301846101d9565b92915050565b600080fd5b610211816101cf565b811461021c57600080fd5b50565b60008135905061022e81610208565b92915050565b60006020828403121561024a57610249610203565b5b60006102588482850161021f565b91505092915050565b7f4e487b7100000000000000000000000000000000000000000000000000000000600052601260045260246000fd5b7f4e487b7100000000000000000000000000000000000000000000000000000000600052601160045260246000fd5b60006102ca826101cf565b91506102d5836101cf565b9250826102e5576102e4610261565b5b828204905092915050565b60006102fb826101cf565b9150610306836101cf565b9250827fffffffffffffffffffffffffffffffffffffffffffffffffffffffffffffffff0382111561033b5761033a610290565b5b828201905092915050565b6000610351826101cf565b915061035c836101cf565b92508282101561036f5761036e610290565b5b828203905092915050565b6000610385826101cf565b9150610390836101cf565b9250817fffffffffffffffffffffffffffffffffffffffffffffffffffffffffffffffff04831182151516156103c9576103c8610290565b5b82820290509291505056fea26469706673582212203294d3dcf05232e3f37fb54751b366f5499109b81d73e638c64395ddcf5acffe64736f6c634300080d0033",
  "immutableReferences": {},
  "source": "\r\n// SPDX-License-Identifier: MIT\r\npragma solidity ^0.8.13;\r\n\r\ncontract Calculate {\r\n     uint256 public value;\r\n\r\n    function setValue(uint256 _value) public {\r\n        value = _value;\r\n    }\r\n\r\n    function addition(uint256 n) public {\r\n        value += n;\r\n    }\r\n\r\n    function subtraction(uint256 _s) public {\r\n        value -= _s;\r\n    }\r\n\r\n    function multiplication(uint256 _m) public {\r\n        value *= _m;\r\n    }\r\n\r\n    function division(uint256 _n) public {\r\n        value /= _n;\r\n    }\r\n\r\n    function getValue() public view returns (uint256) {\r\n        return value;\r\n    }\r\n}",
  "sourcePath": "C:\\Users\\TOSHIBA\\Documents\\dappsPractice\\contracts\\calsc.sol",
  "compiler": {
    "name": "solc",
    "version": "0.8.13+commit.abaa5c0e.Emscripten.clang"
  },
  "schemaVersion": "3.4.16",
  "updatedAt": "2024-09-23T12:23:07.251Z",
  "devdoc": {
    "kind": "dev",
    "methods": {},
    "version": 1
  },
  "userdoc": {
    "kind": "user",
    "methods": {},
    "version": 1
  }
}