{
  "contractName": "Counter",
  "abi": [
    {
      "inputs": [],
      "stateMutability": "nonpayable",
      "type": "constructor"
    },
    {
      "anonymous": false,
      "inputs": [
        {
          "indexed": false,
          "internalType": "uint256",
          "name": "_counter",
          "type": "uint256"
        }
      ],
      "name": "CounterAdd",
      "type": "event"
    },
    {
      "inputs": [],
      "name": "counter",
      "outputs": [
        {
          "internalType": "uint256",
          "name": "",
          "type": "uint256"
        }
      ],
      "stateMutability": "view",
      "type": "function"
    },
    {
      "inputs": [],
      "name": "incremenntCounter",
      "outputs": [],
      "stateMutability": "nonpayable",
      "type": "function"
    }
  ],
  "bytecode": "0x608060405234801561001057600080fd5b506000808190555061019c806100276000396000f3fe608060405234801561001057600080fd5b50600436106100365760003560e01c806352013c731461003b57806361bc221a14610045575b600080fd5b610043610063565b005b61004d6100b5565b60405161005a91906100d4565b60405180910390f35b6000808154809291906100759061011e565b91905055507fa7da8fe320861e5c4b47a691556a41a126537875b33cafcb4d63033b74d04a726000546040516100ab91906100d4565b60405180910390a1565b60005481565b6000819050919050565b6100ce816100bb565b82525050565b60006020820190506100e960008301846100c5565b92915050565b7f4e487b7100000000000000000000000000000000000000000000000000000000600052601160045260246000fd5b6000610129826100bb565b91507fffffffffffffffffffffffffffffffffffffffffffffffffffffffffffffffff820361015b5761015a6100ef565b5b60018201905091905056fea264697066735822122018de165f0be2f668e7100634ff77a07c44dc53f675c0f5483b17ada4055ec7c464736f6c634300080d0033",
  "immutableReferences": {},
  "source": "//SPDX-License-Identifier: GPL-30\r\n\r\npragma solidity ^0.8.13;\r\n\r\ncontract Counter{\r\n    uint256 public counter;\r\n\r\n    event CounterAdd(uint256 _counter);\r\n\r\n    constructor() {\r\n        counter = 0;\r\n    }\r\n\r\n    function incremenntCounter() public {\r\n        counter ++;\r\n        emit CounterAdd(counter);\r\n    }\r\n}",
  "sourcePath": "C:\\Users\\TOSHIBA\\Documents\\dappsPractice\\contracts\\counter.sol",
  "compiler": {
    "name": "solc",
    "version": "0.8.13+commit.abaa5c0e.Emscripten.clang"
  },
  "schemaVersion": "3.4.16",
  "updatedAt": "2024-09-23T12:23:07.256Z",
  "devdoc": {
    "kind": "dev",
    "methods": {},
    "version": 1
  },
  "userdoc": {
    "kind": "user",
    "methods": {},
    "version": 1
  }
}